:020000040000FA
:060000009AEF1EF0120051
:020006001200E6
:08000800F2A402D041EF12F056
:100010009EA202D004EF13F0A1A202D034EF1BF095
:100020009EAA02D0DBEF14F01200D08EF28EF28C7A
:020030001200BC
:0E00320008000A3E0000A901000002000000C4
:10004000FF3D0000920100000B000000FE3D00009B
:10005000AC01000001000000BD3D000000010000F7
:1000600041000000BB3D0000A701000002000000AD
:10007000A73D00007E010000140000009B3D000031
:10008000270F00000C000000803D0000630100000D
:040090001B00000051
:0C009400D9CFE6FFE1CFD9FF040EE12632
:1000A000020EDB6AFB0EDBCFE9FFFC0EDBCFEAFFC3
:1000B000050EEE1801E1ED5051E1010EE76EFD0E67
:1000C000DBCFE9FFFE0EDBCFEAFFE750E926000EAB
:1000D000EA22EF50000EF350DE6EDD6A020EE76E8C
:1000E000FD0EDBCFE9FFFE0EDBCFEAFFE750E9268E
:1000F000000EEA22EF50DF12DF2A010E01E3DB2AB5
:10010000E66EE66EE66ADECFE6FFDDCFE6FF030EC3
:10011000E76EFD0EDBCF14F0FE0EDBCF15F0E750DF
:100120001426000E152214C0E6FF15C0E6FFEFEC02
:1001300017F0166E070EE15E1650E76E030EE7CF5E
:10014000DBFFDB500AE0030EDBCFE6FF22EC12F010
:10015000E552E76E020EE7CFDBFF05D0030EF36E2C
:10016000020EF3CFDBFF020EDB50146E040EE15CD7
:1001700003E200D0E16AE552E16E1450E552E7CFA8
:10018000D9FF1200D9CFE6FFE1CFD9FF070EE12654
:10019000050EDB6AFB0EDBCFE9FFFC0EDBCFEAFFCF
:1001A000EECF14F0EFCF15F0060E145C000E1558CC
:1001B00001E2CCD0010EE76EFD0EDBCFE9FFFE0EB3
:1001C000DBCFEAFFE750E926000EEA22EF50000EEF
:1001D000F350DE6EDD6A020EE76EFD0EDBCFE9FF47
:1001E000FE0EDBCFEAFFE750E926000EEA22EF50D1
:1001F000DF12DF2A010E01E3DB2A030EE76EFD0E9C
:10020000DBCFE9FFFE0EDBCFEAFFE750E926000E69
:10021000EA22EF50000EF350E66ED950020FE96E5D
:10022000DACFEAFFE552E750EE6EED6A040EE76EB4
:10023000FD0EDBCFE9FFFE0EDBCFEAFFE750E9263C
:10024000000EEA22EF50146E156AD950020FE96EC3
:10025000DACFEAFF1450EE121550ED12050EE76EDC
:10026000FD0EDBCFE9FFFE0EDBCFEAFFE750E9260C
:10027000000EEA22040EEFCFDBFF020EDBCF14F0FC
:10028000030EDBCF15F0010E145C000E155858E379
:10029000D950020FE96EDACFEAFF780ED880EE541B
:1002A000000EED544DE3020E086E096ADBCF0DF02F
:1002B000030EDBCF0EF0D6EC1DF00650F36E040EED
:1002C000DB50F35C3DE1010EE66E020EDBCFE6FF94
:1002D000030EDBCFE6FFDECFE6FFDDCFE6FF060E47
:1002E000E76EFD0EDBCF14F0FE0EDBCF15F0E7500E
:1002F0001426000E152214C0E6FF15C0E6FFEFEC31
:1003000017F0166E070EE15E1650E76E060EE7CF89
:10031000DBFFDB500BE0060EDBCFE6FF22EC12F03A
:10032000E552E76E050EE7CFDBFF09D0FB0EDBCF12
:10033000E9FFFC0EDBCFEAFF050EEE6EED6A05D09D
:10034000030EF36E050EF3CFDBFF05D0030EF36E45
:10035000050EF3CFDBFFDB50146E070EE15C03E20A
:1003600000D0E16AE552E16E1450E552E7CFD9FFC3
:100370001200D9CFE6FFE1CFD9FF080EE126060E25
:10038000DB6AFB0EDBCFE9FFFC0EDBCFEAFF050EDD
:10039000EE1801E1ED5001E0F9D0010EE76EFD0E1F
:1003A000DBCFE9FFFE0EDBCFEAFFE750E926000EC8
:1003B000EA22EF50000EF350DE6EDD6A020EE76EA9
:1003C000FD0EDBCFE9FFFE0EDBCFEAFFE750E926AB
:1003D000000EEA22EF50DF12DF2A010E01E3DB2AD2
:1003E000030EE76EFD0EDBCFE9FFFE0EDBCFEAFF6B
:1003F000E750E926000EEA22EF50000EF350E66EB9
:10040000D950020FE96EDACFEAFFE552E750EE6EFF
:10041000ED6A040EE76EFD0EDBCFE9FFFE0EDBCFCB
:10042000EAFFE750E926000EEA22EF50E66ED950C7
:10043000020FE96EDACFEAFFE552E750EE6EED6AA1
:10044000020EDBCF14F0030EDBCF15F0010E145CAF
:10045000000E155801E294D0D950020FE96EDACFA0
:10046000EAFF7D0ED880EE54000EED5401E288D0F4
:10047000FD0EDBCF08F0FE0EDBCF09F0040E08C046
:10048000DBFF050E09C0DBFFFB0EDBCFE9FFFC0E37
:10049000DBCFEAFFEE6AED6A040EDBCFE9FFDB2A71
:1004A000050EDBCFEAFF01E3DB2A030EEF6EFB0E46
:1004B000DBCFE9FFFC0EDBCFEAFFEE2A000EED22D8
:1004C000020E086E096ADBCF0DF0030EDBCF0EF0D3
:1004D000D6EC1DF00650E66E040EDBCFE9FFDB2AFA
:1004E000050EDBCFEAFF01E3DB2AE552E750EF6EB2
:1004F000FB0EDBCFE9FFFC0EDBCFEAFFEE2A000E9E
:10050000ED22E66A020EDBCFE6FF030EDBCFE6FF4D
:10051000DECFE6FFDDCFE6FF040EDBCFE6FF050E04
:10052000DBCFE6FFEFEC17F0146E070EE15E145020
:10053000E76E070EE7CFDBFFDB500BE0070EDBCFEC
:10054000E6FF22EC12F0E552E76E060EE7CFDBFF86
:1005500016D0020EDBCF14F0030EDBCF15F0010E28
:10056000D89014361536E806FBE1FB0EDBCFE9FF29
:10057000FC0EDBCFEAFF1450EE261550ED2205D01D
:10058000030EF36E060EF3CFDBFF05D0030EF36E02
:10059000060EF3CFDBFF060EDB50146E080EE15C97
:1005A00003E200D0E16AE552E16E1450E552E7CF74
:1005B000D9FF1200D9CFE6FFE1CFD9FF0D0EE1261A
:1005C0000B0EDB6AFB0EDBCFE9FFFC0EDBCFEAFF95
:1005D000EECF14F0EFCF15F00A0E145C000E155894
:1005E00001E2D0D1010EE76EFD0EDBCFE9FFFE0E7A
:1005F000DBCFEAFFE750E926000EEA22EF50000EBB
:10060000F350DE6EDD6A020EE76EFD0EDBCFE9FF12
:10061000FE0EDBCFEAFFE750E926000EEA22EF509C
:10062000DF12DF2A010E01E3DB2A030EE76EFD0E67
:10063000DBCFE9FFFE0EDBCFEAFFE750E926000E35
:10064000EA22EF50000EF350E66ED950020FE96E29
:10065000DACFEAFFE552E750EE6EED6A040EE76E80
:10066000FD0EDBCFE9FFFE0EDBCFEAFFE750E92608
:10067000000EEA22EF50146E156AD950020FE96E8F
:10068000DACFEAFF1450EE121550ED12050EE76EA8
:10069000FD0EDBCFE9FFFE0EDBCFEAFFE750E926D8
:1006A000000EEA22EF50000EF350E66ED950040F10
:1006B000E96EDACFEAFFE552E750EE6EED6A060E1C
:1006C000E76EFD0EDBCFE9FFFE0EDBCFEAFFE75062
:1006D000E926000EEA22EF50146E156AD950040F75
:1006E000E96EDACFEAFF1450EE121550ED12040E47
:1006F000DB2A050E01E3DB2A070EE76EFD0EDBCFDA
:10070000E9FFFE0EDBCFEAFFE750E926000EEA2202
:10071000EF50000EF350E66ED950060FE96EDACFB7
:10072000EAFFE552E750EE6EED6A080EE76EFD0E49
:10073000DBCFE9FFFE0EDBCFEAFFE750E926000E34
:10074000EA22EF50146E156AD950060FE96EDACF1F
:10075000EAFF1450EE121550ED12090EE76EFD0E71
:10076000DBCFE9FFFE0EDBCFEAFFE750E926000E04
:10077000EA22080EEFCFDBFF020EDBCF14F0030EF0
:10078000DBCF15F0010E145C000E155801E2F5D018
:10079000D950020FE96EDACFEAFF7D0ED880EE5411
:1007A000000EED5401E2E9D0060EDBCF16F0070E85
:1007B000DBCF17F0010E165C000E175801E2DDD0FA
:1007C000D950060FE96EDACFEAFF790ED880EE54E1
:1007D000000EED5401E2D1D0020E086E096A060E39
:1007E000DBCF0DF0070EDBCF0EF0D6EC1DF006C010
:1007F00018F007C019F0080EDB501A6E1B6A1A5069
:10080000181802E11B50191801E0B7D0010EE66E6E
:10081000060EDBCFE6FF070EDBCFE6FF040EDBCFD5
:10082000E6FF050EDBCFE6FF0A0EE76EFD0EDBCF1F
:1008300014F0FE0EDBCF15F0E7501426000E152243
:1008400014C0E6FF15C0E6FFEFEC17F0166E070EBA
:10085000E15E1650E76E0C0EE7CFDBFFDB5001E0E8
:100860007ED0FD0EDBCF08F0FE0EDBCF09F0090EC7
:1008700008C0DBFF0A0E09C0DBFFFB0EDBCFE9FF80
:10088000FC0EDBCFEAFFEE6AED6A090EDBCFE9FF73
:10089000DB2A0A0EDBCFEAFF01E3DB2A170EEF6E3D
:1008A000FB0EDBCFE9FFFC0EDBCFEAFFEE2A000EEA
:1008B000ED22020E086E096ADBCF0DF0030EDBCFCE
:1008C0000EF0D6EC1DF00650E66E090EDBCFE9FF08
:1008D000DB2A0A0EDBCFEAFF01E3DB2AE552E75011
:1008E000EF6EFB0EDBCFE9FFFC0EDBCFEAFFEE2A5B
:1008F000000EED22E66A020EDBCFE6FF030EDBCF31
:10090000E6FFDECFE6FFDDCFE6FF090EDBCFE6FF39
:100910000A0EDBCFE6FFEFEC17F0146E070EE15E78
:100920001450E76E0C0EE7CFDBFFDB5018E1020E30
:10093000086E096ADBCF0DF0030EDBCF0EF0D6ECAC
:100940001DF006C014F007C015F0FB0EDBCFE9FF69
:10095000FC0EDBCFEAFF1450EE261550ED220C0EF4
:10096000DB500AE00C0EDBCFE6FF22EC12F0E55282
:10097000E76E0B0EE7CFDBFF05D0030EF36E0B0E19
:10098000F3CFDBFF0B0EDB50146E0D0EE15C03E2C8
:1009900000D0E16AE552E16E1450E552E7CFD9FF8D
:0209A000120043
:0E09A200D9CFE6FFE1CFD9FF050EE126FE0E0C
:1009B000DB50080802E2000E66D0FE0EDBCF74F1B9
:1009C000DF6A01017451DF5C0AE2DF50EA6A6C0FF2
:1009D000E96E010EEA229CC1EFFFDF2AF2D7640E16
:1009E0007A6F010E7B6FDF6A0B0EDF5C48E2010E4F
:1009F000DB6AFE0EDB50F36E010EDBCFF4FFF3502B
:100A0000F45C15E2DF50EA6A920FE96E010EEA2209
:100A1000EF50E66E010EDB50EA6A640FE96E010EDC
:100A2000EA22E552E750EF6E010EDB2AE2D7020E12
:100A3000DB6A640EF36E020EDBCFF4FFF350F45C5E
:100A40001CE22DD8030EF36EF3CFDBFF040EDB6A3E
:100A5000030EDBCF14F0DB06040EDBCF15F001E252
:100A6000DB061450151006E0040EE66E7AEC1EF05C
:100A7000E552EED7020EDB2ADCD7DF2AB5D701011B
:100A8000756B010E00D0146E050EE15C02E2E16AA6
:100A9000E552E16E1450E552E7CFD9FF1200010193
:100AA0006351010A14E0010A01E03BD07551EA6A82
:100AB0007A25E96E7B51EA22EF50E66E41D9E55284
:100AC0000101752B7451755D01E3756B2AD0755169
:100AD000EA6A7A25E96E7B51EA22EF50E66E30D958
:100AE000E5520101752B7451755D01E3756B762B31
:100AF000000E77237851765D7951775911E3766B43
:100B0000776B640E7A1902E1010E7B1905E16C0E18
:100B10007A6F010E7B6F04D0640E7A6F010E7B6FCB
:100B200000D01200D9CFE6FFE1CFD9FFE652DF6A4D
:100B3000DF6A01017451DF5C16E2DF50E76EFD0EE3
:100B4000DBCFE9FFFE0EDBCFEAFFE750E926000E20
:100B5000EA22EF50E66E49D9E552000902E1000EA3
:100B600041D0DF2AE6D7DF6A7451DF5C38E2DF501C
:100B7000E76EFD0EDBCFE9FFFE0EDBCFEAFFE750AD
:100B8000E926000EEA22EF50200809E1DF50EA6A68
:100B9000640FE96E010EEA229CC1EFFF1ED0DF5008
:100BA000E76EFD0EDBCFE9FFFE0EDBCFEAFFE7507D
:100BB000E926000EEA22EF50D00FEA6A920FE96EA2
:100BC000010EEA22EF50E66EDF50EA6A640FE96E2A
:100BD000010EEA22E552E750EF6EDF2AC5D7756BAA
:100BE000010E00D0E552E552E7CFD9FF1200D9CF70
:100BF000E6FFE1CFD9FFE652DF6ADF6A01017451F7
:100C0000DF5C19E2DF50E76EFD0EDBCFE9FFFE0E81
:100C1000DBCFEAFFE750E926000EEA22EF50E66E4E
:100C2000DF50EA6A640FE96E010EEA22E552E750EE
:100C3000EF6EDF2AE3D7756BE552E552E7CFD9FFB8
:100C40001200D9CFE6FFE1CFD9FFE652DF6AFE0EF0
:100C5000DBCF14F001017451D880145402E2000E6D
:100C60002DD0FD0EDBCFE6FFC0D8E552000902E132
:100C7000000E24D0FD0EDB5020080AE1FE0EDB50F2
:100C8000EA6A640FE96E010EEA229CC1EFFF14D0FC
:100C9000FD0EDB50D00FEA6A920FE96E010EEA22D8
:100CA000EF50E66EFE0EDB50EA6A640FE96E010E4D
:100CB000EA22E552E750EF6E010E00D0E552E55210
:100CC000E7CFD9FF1200D9CFE6FFE1CFD9FFFD0E64
:100CD000DBCF78F1FE0EDBCF79F1010E0F0B0101B6
:100CE00005E0D89079337833E806FBE10101766BB3
:100CF000776B010E636FE552E7CFD9FF1200010158
:100D0000640E7A6F010E7B6F636B1200D9CFE6FF22
:100D1000E1CFD9FFE652DF6A01017451DF5C0AE2DC
:100D2000DF50EA6A640FE96E010EEA229CC1EFFF10
:100D3000DF2AF2D7756BE552E552E7CFD9FF1200F3
:100D4000D9CFE6FFE1CFD9FF81908192819481963E
:100D5000FE0EDB50836E01017551030A0DE0010A9E
:100D600009E0030A05E0010A01E008D0818006D00D
:100D7000818204D0818402D0818600D0E552E7CF01
:100D8000D9FF1200D9CFE6FFE1CFD9FF020EE1264D
:100D9000FE0EDB50DF6EFE0EDBCFE6FFFD0EDB50FE
:100DA000E552E724DF5C17E2DF50EA6A640FE96E80
:100DB000010EEA22010EEFCFDBFFDB508009E66E69
:100DC000DF50EA6A640FE96E010EEA22E552E7504D
:100DD000EF6EDF2AE0D7020EE15C02E2E16AE55243
:100DE000E16EE552E7CFD9FF1200D9CFE6FFE1CFA0
:100DF000D9FFE652DF6AFE0EDB50200803E1010E48
:100E0000DF6E0ED0300EF36EFE0EDBCFF4FFF3502C
:100E1000F45C06E3FE0EDB50390802E3010EDF6EE0
:100E2000DF5000D0E552E552E7CFD9FF1200D9CF0D
:100E3000E6FFE1CFD9FF020EE126DF6A010EDB6A91
:100E4000DF6AFB0EDB50DF5C16E2DF50E76EFD0E63
:100E5000DBCFE9FFFE0EDBCFEAFFE750E926000E0D
:100E6000EA22EF50E66EC1DFE552000902E1000E12
:100E70004DD0DF2AE6D7FC0EDB50DF6EFB0EDBCF5A
:100E8000E6FFFC0EDB50E552E724DF5C3BE2DF507F
:100E9000E76EFD0EDBCFE9FFFE0EDBCFEAFFE7508A
:100EA000E926000EEA22EF50200809E1DF50EA6A45
:100EB000640FE96E010EEA229CC1EFFF1FD0010E04
:100EC000DB50E76EFD0EDBCFE9FFFE0EDBCFEAFF66
:100ED000E750E926000EEA22EF50D00FEA6A920F9F
:100EE000E96E010EEA22EF50E66EDF50EA6A640F07
:100EF000E96E010EEA22E552E750EF6EDF2A010E9D
:100F0000DB2ABCD70101756B010E00D0146E020EF6
:100F1000E15C02E2E16AE552E16E1450E552E7CF8E
:100F2000D9FF1200D9CFE6FFE1CFD9FFE652FD0E7F
:100F3000DBCF78F1FE0EDBCF79F1010E0F0B010153
:100F400005E0D89079337833E806FBE10101766B50
:100F5000776BFC0EDB507C6F7D6BDF6A7451DF5C5E
:100F60001CE2DF50146E156A7C51141802E17D51A9
:100F7000151811E0DF50EA6A640FE96E010EEA22EB
:100F8000EF50E66EDF50EA6A6C0FE96E010EEA225E
:100F9000E552E750EF6EDF2AE1D76C0E7C25E96E53
:100FA000010E7D21EA6EEF6A010E636FE552E55294
:060FB000E7CFD9FF12009B
:0A0FB600D9CFE6FFE1CFD9FF090E05
:100FC000E126070EDB6AFB0EDBCFE9FFFC0EDBCF71
:100FD000EAFF050EEE1801E1ED5001E011D1010E1E
:100FE000E76EFD0EDBCFE9FFFE0EDBCFEAFFE75039
:100FF000E926000EEA22EF50000EF350DE6EDD6AA5
:10100000020EE76EFD0EDBCFE9FFFE0EDBCFEAFF3F
:10101000E750E926000EEA22EF50DF12DF2A010E28
:1010200001E3DB2A030EE76EFD0EDBCFE9FFFE0EC8
:10103000DBCFEAFFE750E926000EEA22EF50000E70
:10104000F350E66ED950020FE96EDACFEAFFE552AF
:10105000E750EE6EED6A040EE76EFD0EDBCFE9FFA2
:10106000FE0EDBCFEAFFE750E926000EEA22EF5042
:10107000146E156AD950020FE96EDACFEAFF1450E8
:10108000EE121550ED12020EDBCF14F0030EDBCF83
:1010900015F0010E145C000E155801E2ABD0020EE3
:1010A000DBCF16F0030EDBCF17F0D00E165C070E69
:1010B000175801E39FD0FD0EDBCF08F0FE0EDBCF0B
:1010C00009F0050E08C0DBFF060E09C0DBFFFB0EB2
:1010D000DBCFE9FFFC0EDBCFEAFFEE6AED6A050E1F
:1010E000DBCFE9FFDB2A060EDBCFEAFF01E3DB2AD9
:1010F000010EEF6EFB0EDBCFE9FFFC0EDBCFEAFF4C
:10110000EE2A000EED22020EDB50070B15E0020E58
:10111000DBCF14F0030EDBCF15F00F0B05E0D890FA
:1011200015321432E806FBE1010E1426000E1522DA
:10113000040E14C0DBFF12D0080E146E156A020EE6
:10114000DBCF08F0030EDBCF09F014C00DF015C0A3
:101150000EF064EC1EF0040E08C0DBFF050EDBCFC2
:10116000E9FFDB2A060EDBCFEAFF01E3DB2A040EF0
:10117000DBCFEFFFFB0EDBCFE9FFFC0EDBCFEAFF9F
:10118000EE2A000EED22E66A020EDBCFE6FF030E2A
:10119000DBCFE6FFDECFE6FFDDCFE6FF050EDBCFE0
:1011A000E6FF060EDBCFE6FF82EC18F0146E070EAA
:1011B000E15E1450E76E080EE7CFDBFFDB500BE07B
:1011C000080EDBCFE6FF22EC12F0E552E76E070EC9
:1011D000E7CFDBFF0ED0040EDB50146E156AFB0E5A
:1011E000DBCFE9FFFC0EDBCFEAFF1450EE261550F3
:1011F000ED2205D0030EF36E070EF3CFDBFF05D013
:10120000030EF36E070EF3CFDBFF070EDB50146EF9
:10121000090EE15C03E200D0E16AE552E16E145090
:10122000E552E7CFD9FF1200D9CFE6FFE1CFD9FFD2
:10123000060EE126040EDB6AFB0EDBCFE9FFFC0E97
:10124000DBCFEAFF050EEE1801E1ED5001E091D091
:10125000010EE76EFD0EDBCFE9FFFE0EDBCFEAFFEE
:10126000E750E926000EEA22EF50000EF350DE6E42
:10127000DD6A020EE76EFD0EDBCFE9FFFE0EDBCF6F
:10128000EAFFE750E926000EEA22EF50DF12DF2ADC
:10129000010E01E3DB2A040EE76EFD0EDBCFE9FF52
:1012A000FE0EDBCFEAFFE750E926000EEA22EF5000
:1012B0005AE1030EE76EFD0EDBCFE9FFFE0EDBCF3A
:1012C000EAFFE750E926000EEA22EF50FF080EE0A1
:1012D000030EE76EFD0EDBCFE9FFFE0EDBCFEAFF6C
:1012E000E750E926000EEA22EF503DE1030EDB6AEB
:1012F000E76EFD0EDBCFE9FFFE0EDBCFEAFFE75026
:10130000E926000EEA22EF50FF0806E1010EF36E17
:10131000020EF3CFDBFF02D0020EDB6A010EE66E97
:10132000E66EE66ADECFE6FFDDCFE6FFD950020FBC
:10133000E66E000EDA20E66E82EC18F0146E070EF0
:10134000E15E1450E76E050EE7CFDBFFDB500AE0ED
:10135000050EDBCFE6FF22EC12F0E552E76E040E3D
:10136000E7CFDBFF05D0030EF36E040EF3CFDBFFF8
:1013700005D0030EF36E040EF3CFDBFF040EDB503B
:10138000146E060EE15C03E200D0E16AE552E16E04
:101390001450E552E7CFD9FF1200D9CFE6FFE1CFD5
:1013A000D9FF080EE126060EDB6AFB0EDBCFE9FF54
:1013B000FC0EDBCFEAFF050ED880EE54000EED5494
:1013C00001E3EED0010EE76EFD0EDBCFE9FFFE0E6E
:1013D000DBCFEAFFE750E926000EEA22EF50000ECD
:1013E000F350DE6EDD6A020EE76EFD0EDBCFE9FF25
:1013F000FE0EDBCFEAFFE750E926000EEA22EF50AF
:10140000DF12DF2A010E01E3DB2A030EE76EFD0E79
:10141000DBCFE9FFFE0EDBCFEAFFE750E926000E47
:10142000EA22EF50000EF350E66ED950020FE96E3B
:10143000DACFEAFFE552E750EE6EED6A040EE76E92
:10144000FD0EDBCFE9FFFE0EDBCFEAFFE750E9261A
:10145000000EEA22EF50146E156AD950020FE96EA1
:10146000DACFEAFF1450EE121550ED12050EE76EBA
:10147000FD0EDBCFE9FFFE0EDBCFEAFFE750E926EA
:10148000000EEA22040EEFCFDBFF020EDB50070B4B
:1014900015E0020EDBCF14F0030EDBCF15F00F0BBF
:1014A00005E0D89015321432E806FBE1010E14264F
:1014B000000E1522050E14C0DBFF12D0080E146EAC
:1014C000156A020EDBCF08F0030EDBCF09F014C063
:1014D0000DF015C00EF064EC1EF0050E08C0DBFF29
:1014E000020EDBCF14F0030EDBCF15F0010E145CFF
:1014F000000E15584FE3D950020FE96EDACFEAFF1C
:10150000B00ED880EE54070EED5444E3040EDB50C9
:10151000F36E050EDB50F35C3DE1010EE66E020E4C
:10152000DBCFE6FF030EDBCFE6FFDECFE6FFDDCF4E
:10153000E6FF060EE76EFD0EDBCF14F0FE0EDBCFEE
:1015400015F0E7501426000E152214C0E6FF15C052
:10155000E6FF82EC18F0166E070EE15E1650E76E9D
:10156000070EE7CFDBFFDB500BE0070EDBCFE6FF1C
:1015700022EC12F0E552E76E060EE7CFDBFF09D052
:10158000FB0EDBCFE9FFFC0EDBCFEAFF050EEE6EB4
:10159000ED6A05D0030EF36E060EF3CFDBFF05D028
:1015A000030EF36E060EF3CFDBFF060EDB50146E58
:1015B000080EE15C03E200D0E16AE552E16E1450EE
:0815C000E552E7CFD9FF12004C
:0815C800D9CFE6FFE1CFD9FF06
:1015D000E652DF6AFD0EDB5013E0010EF36EFD0EE6
:1015E000DBCFF4FFF350F45C0BE3FD0EDB50146E25
:1015F000156A153404E21450F708000E155403E27E
:10160000020EDF6E5DD0FD0EDBCF00FFFE0EDB5065
:1016100001E045D00F010E0E056F1D0E066F076B22
:101620002A0E086F1D0E096F0A6B200E026F1E0E28
:10163000036F046B400E0B6F1D0E0C6F0D6B0E6B6A
:101640000F6B106B300E116F1F0E126F136BFE0EAF
:10165000146F1F0E156F166B8C0E176F200E186F00
:10166000196BF70EDBCFE6FFD950F80FE96EFF0ECE
:10167000DA20EA6EEECFE6FFEECFE6FFEECFE6FF32
:10168000EFCFE6FFFC0EDBCFE6FF00CFE6FFE7EC97
:101690000DF0146E070EE15E1450DF6E02D0020EE4
:1016A000DF6EDF500DE1E4EC1CF0000903E1030EF6
:1016B000DF6E06D0FE0EDBCF01FF0101010E006FD1
:1016C000DF5000D0E552E552E7CFD9FF1200D9CF65
:1016D000E6FFE1CFD9FF030EE126146AFE0EDB50D0
:1016E000145C01E3ECD0FE0EDB507F0801E2E7D092
:1016F000F29EFB0EDBCF14F0FC0EDBCF15F0FD0EDF
:10170000DBCF16F014501510161001E18BD0DE6AF5
:10171000DD6ADECF14F0DDCF15F0D890155004E669
:10172000100E145C000E15586CE2DECFE9FFDDCF21
:10173000EAFFD890E936EA36D890E936EA36010E63
:10174000E926010EEA22EECF14F0EECF15F0EECF2F
:1017500016F0EFCF17F0000115501610171022E009
:10176000FB0EDBCF18F0FC0EDBCF19F0FD0EDBCF4C
:101770001AF0DECFE9FFDDCFEAFFD890E936EA368E
:10178000D890E936EA36010EE926010EEA22EE5239
:10179000EE50181806E1EE50191803E1EE501A1831
:1017A00000E12AE1DECFE9FFDDCFEAFFD890E9369C
:1017B000EA36D890E936EA36010EE926010EEA2229
:1017C000FE0EDBCFEFFFDECFE9FFDDCFEAFFD890E3
:1017D000E936EA36D890E936EA36010EE926010EF6
:1017E000EA22EE52FB0EDBCFEEFFFC0EDBCFEEFF6C
:1017F000FD0EDBCFEEFF05D0DF2A010E01E3DB2A71
:1018000088D7D9CFE9FFDACFEAFF100EEE1801E151
:10181000ED5002E0000E01D0040EE76E020EE7CF9D
:10182000DBFF4BD0DE6ADD6ADECF14F0DDCF15F0D2
:10183000D890155004E6100E145C000E15583BE2CB
:10184000DECFE9FFDDCFEAFFD890E936EA36D8905F
:10185000E936EA36010EE926010EEA22EFCF14F04E
:10186000FE0EDB50145C22E1DECFE9FFDDCFEAFFA4
:10187000D890E936EA36D890E936EA36010EE926FC
:10188000010EEA22EF6ADECFE9FFDDCFEAFFD89052
:10189000E936EA36D890E936EA36010EE926010E35
:1018A000EA22EE52EE6AEE6AEE6A05D0DF2A010EF7
:1018B00001E3DB2AB9D7020EDB6AF28E04D0020EF6
:1018C000F36EF3CFDBFFDB50146E030EE15C03E23B
:1018D00000D0E16AE552E16E1450E552E7CFD9FF3E
:1018E0001200D9CFE6FFE1CFD9FFE652DF6A01014E
:1018F00000050FE10F010E510F11101109E007D083
:1019000010CFFBFF0FCFFAFF0F010E51F96EF8DF7A
:1019100002D0060EDF6EDF5000D0E552E552E7CF71
:10192000D9FF1200D9CFE6FFE1CFD9FFE652DF6A37
:10193000010100050CE107D007CFFBFF06CFFAFF3E
:101940000F010551F96EF8DF0101006B02D0060EA0
:10195000DF6EDF5000D0E552E552E7CFD9FF12002D
:10196000D9CFE6FFE1CFD9FFE652010100510EE1E8
:1019700007D00ACFFBFF09CFFAFF0F010851F96E1C
:10198000F8DF0101010E006FDF6A06D0000502E1F9
:10199000DF6A02D0060EDF6EDF5000D0E552E5525E
:1019A000E7CFD9FF1200D9CFE6FFE1CFD9FF040E70
:1019B000E126020EDB6A0101005102E0060EFBD0B7
:1019C000D950030FE66E000EDA20E66EF9EC1CF03B
:1019D000E552E552010801E0ECD0030EDB50030AAA
:1019E00001E1E6D0010A31E0030A04E0010A01E066
:1019F000E0D0DFD0240EE66E0F0EE66E200EE66E0F
:101A00000F0EE66E220EE66E0F0EE66E07D00DCFBD
:101A1000FBFF0CCFFAFF0F010B51F96EF8DF146ECC
:101A2000060EE15E1450E76E020EE7CFDBFFDB50DF
:101A30000BE10F010051225D02E0225105E1020E8F
:101A4000E66EE9EC1CF0E552B4D020CFE9FF21CFDF
:101A5000EAFFEFCF23FF0F01010E266FDE6ADD6A7A
:101A6000DECF14F0DDCF15F0D890155004E6100E3F
:101A7000145C000E155857E2DECFE9FFDDCFEAFF18
:101A8000D890E936EA36D890E936EA36010EE926EA
:101A9000010EEA22EF5002E146D040D0DECFE9FF4E
:101AA000DDCFEAFFD890E936EA36D890E936EA3653
:101AB000010EE926010EEA22EF500F01235D2EE10F
:101AC000DECFE9FFDDCFEAFFD890E936EA36D890DD
:101AD000E936EA36010EE926010EEA22EECF14F0CD
:101AE000EECF15F0EECF16F0EFCF17F0240EE66E26
:101AF0000F0EE66E20CFE6FF21CFE6FF07D017C01E
:101B0000FBFF16C0FAFF00011550F96EF8DFE55231
:101B1000E552E552E5520F01266F05D0DF2A010E8E
:101B200001E3DB2A9DD70F01225141E0265124E039
:101B3000246B256B800E2311E66E24CF14F025CF85
:101B400015F0242B000E252320511424E96E215179
:101B50001520EA6EE552E750EF6E24CF14F025CF42
:101B600015F0242B000E252320511424E96E215159
:101B70001520EA6E26CFEFFF24CFE6FF25CFE6FF44
:101B800020CFE6FF21CFE6FF00CFE6FF07D004CF4E
:101B9000FBFF03CFFAFF0F010251F96EF8DF146E5D
:101BA000050EE15E1450E76E020EE7CFDBFF01D0B9
:101BB00000D0000E00D0146E040EE15C02E2E16A77
:0E1BC000E552E16E1450E552E7CFD9FF120056
:021BCE00D9CF6D
:101BD000E6FFE1CFD9FF050EE126DF6A9D9AF80EF8
:101BE000DBCFE6FF080EE66ED950F90FE96EFF0E67
:101BF000DA20EA6EEECFE6FFEECFE6FFEECFE6FFAD
:101C0000EFCFE6FFFD0EDBCFE6FFE9EC13F0146E3D
:101C1000070EE15E1450010803E0030EDF6E68D08A
:101C2000D950F90FE96EFF0EDA20EA6ED880020E65
:101C3000EE54000EEE54000EEE54000EEE540FE281
:101C4000A30EF36E010EF3CFDBFFBB0EF36E020E9D
:101C5000F3CFDBFF030EDB6A040EDB6A3BD0D95007
:101C6000F90FE96EFF0EDA20EA6E010EEE1805E1BB
:101C7000EE5003E1EE5001E1EE500FE1CF0EF36EB6
:101C8000010EF3CFDBFF710EF36E020EF3CFDBFF1D
:101C9000030EDB6A040EDB6A1DD0D950F90FE96E22
:101CA000FF0EDA20EA6E020EEE1805E1EE5003E1B7
:101CB000EE5001E1EE500EE1E70EF36E010EF3CFB0
:101CC000DBFFB80EF36E020EF3CFDBFF030EDB6A11
:101CD000040EDB6A010EDBCFE6FF020EDBCFE6FF70
:101CE000FAEC1AF0E552E552010802E0030EDF6E4D
:101CF0009D8ADF50146E050EE15C03E200D0E16ABC
:101D0000E552E16E1450E552E7CFD9FF12009D9ADB
:101D10000101A86BE66A010EE66ECEEC13F0E55207
:101D2000E55227EC1BF09D8A12009D9AE66AE66A4E
:101D3000CEEC13F0E552E55232EC1BF09D8A120016
:101D4000D9CFE6FFE1CFD9FF040EE126DF6A010E0D
:101D5000DB6A9D9A0301F00EF45D000EF55902E373
:101D6000050E52D0040EF45D000EF55946E3F4C39F
:101D7000E6FFF5C3E6FF000EE66E030EE66E8BECA3
:101D80001BF0E552E552E552E552020EF3CFDBFFC0
:101D9000030EF4CFDBFFD950020FE96EDACFEAFF72
:101DA000EE50ED1029E1FD0EDBCFE9FFFE0EDBCF9B
:101DB000EAFF00C3EFFFF4C314F0F5C315F01406F7
:101DC000000E155A020E145E000E155AF90EDBCFE6
:101DD000E9FFFA0EDBCFEAFF14C0EEFF15C0EDFFFE
:101DE000FB0EDBCFE9FFFC0EDBCFEAFF010EEE6E50
:101DF000030EED6E010EDF6E03D0DE52050EDD6EBA
:101E00009D8A010EDB5000D0146E040EE15C02E2EC
:101E1000E16AE552E16E1450E552E7CFD9FF1200B6
:101E2000D9CFE6FFE1CFD9FF030EE126DF6A9D9A05
:101E30000101A8056CE1FC0EDBCFF0F3FD0EDBCF5A
:101E4000F1F30301010EF05F000EF15B010EF26F82
:101E5000F36BFE0EDB50F0C3E9FFF1C3EAFFEF6E58
:101E6000FA0EDBCF08F0FB0EDBCF09F00850F227AB
:101E70000950F323F2C3E6FFF3C3E6FFF0C3E6FF26
:101E8000F1C3E6FF8BEC1BF0E552E552E552E5525B
:101E9000DE52F3CFDEFFF4CFDDFFDD52FF0EE76E43
:101EA000010EDBCF14F0020EDBCF15F0E750141655
:101EB000156A0301F2C3E9FFF3C3EAFFF22B000E38
:101EC000F323000EE926030EEA2214C0EFFF010EF1
:101ED000DBCF14F0020EDBCF15F015C014F0156A3D
:101EE000F2C3E9FFF3C3EAFFF22B000EF323000E67
:101EF000E926030EEA2214C0EFFF0101010EA76FCD
:101F0000E66EE66ACEEC13F0E552E55202D0050E1D
:101F1000DF6E9D8ADF50146E030EE15C03E200D099
:101F2000E16AE552E16E1450E552E7CFD9FF1200A5
:101F3000D9CFE6FFE1CFD9FF020EE126DF6A01012A
:101F4000A75102E0000E4FD0D950010FE66E000EEF
:101F5000DA20E66E6DEC14F0E552E5520101A8516D
:101F6000020A24E0030A0BE0020A06E0030A01E089
:101F700038D027EC1BF035D027EC1BF032D0030112
:101F8000F46BF56BF4C3E9FFF5C3EAFFF42B000E25
:101F9000F523000EE926030EEA22010EDBCFEFFF48
:101FA0000101020EA86F27EC1BF01BD00301F00EFD
:101FB000F45D000EF5590FE2F4C3E9FFF5C3EAFF43
:101FC000F42B000EF523000EE926030EEA22010E83
:101FD000DBCFEFFF03D00101030EA86F27EC1BF04E
:101FE00000D0DF5000D0146E020EE15C02E2E16A24
:101FF000E552E16E1450E552E7CFD9FF1200D9CF78
:10200000E6FFE1CFD9FFE652DF6A0101A80502E051
:10201000000E37D0A751010A0BE0010A01E02FD0D2
:10202000E66A010EE66ECEEC13F0E552E55227D0DB
:102030000301000ED880F255000EF35510E2F0C3F4
:10204000E9FFF1C3EAFFEF50E66E52EC14F0E552FF
:102050000301F02B000EF123F207F35BE9D7030E27
:10206000E66EE9EC1CF0E552DF6EE66A010EE66E04
:10207000CEEC13F0E552E5520101A76B00D0DF5022
:1020800000D0E552E552E7CFD9FF1200D9CFE6FFE5
:10209000E1CFD9FFE652DF6A0101A851030A12E03D
:1020A000010A09E0020A01E00ED0E66AE9EC1CF040
:1020B000E552DF6E08D0010EE66EE9EC1CF0E55249
:1020C000DF6E01D000D032EC1BF00101010EA86FD1
:0E20D000DF5000D0E552E552E7CFD9FF1200F5
:0220DE00D9CF58
:1020E000E6FFE1CFD9FF0A0EE126F90EDB50E66EDE
:1020F000D950080FE96EDACFEAFFE552E750EE6EED
:10210000ED6AFA0EDB50080801E2F1D0080E146EF9
:10211000156AFB0EDBCF08F0FC0EDBCF09F014C014
:102120000DF015C00EF064EC1EF0040E08C0DBFFCD
:10213000050E09C0DBFFFB0EDBCF16F0FC0EDBCF7C
:1021400017F0080E086E096A040EDBCF0DF0050EBD
:10215000DBCF0EF0D6EC1DF00650165C146E075067
:102160001758156E060E14C0DBFF070E15C0DBFFF7
:10217000060EDBCF14F0D950080FE96EDACFEAFF74
:102180001450E85005E0D890EE36ED36E806FBE155
:10219000FA0EDB50166E010E165204E0E846FE0BF6
:1021A0001606FCE1FF0F146E156A14BE1568020EC8
:1021B00014C0DBFF030E15C0DBFFFB0EDBCF16F0F8
:1021C000FC0EDBCF17F0080E086E096A040EDBCF99
:1021D0000DF0050EDBCF0EF0D6EC1DF00650165CB0
:1021E000146E07501758156ED950020FE96EDACFEA
:1021F000EAFF1450E85005E0D890EE36ED36E806D8
:10220000FBE1040EDBCF14F0050EDBCF15F0FD0E65
:10221000DB501424E96EFE0EDB501520EA6EEF5001
:10222000DE6EDD6A010EE76E040EDBCF14F0050EE4
:10223000DBCF15F0E7501426000E1522FD0EDB5003
:102240001424E96EFE0EDB501520EA6EEF50000EEE
:10225000F350DF12020EDB1C186E030EDB1C196E2E
:10226000DE501814166EDD501914176E080EDB5070
:102270001610146E090EDB501710156E14C0DEFF19
:1022800015C0DDFFDECF16F0DDCF17F0FF0E1616FE
:10229000000E1716040EDBCF14F0050EDBCF15F081
:1022A000FD0EDB501424E96EFE0EDB501520EA6EA5
:1022B00016C0EFFFDECF16F0DDCF17F017C016F017
:1022C000176A010EE76E040EDBCF14F0050EDBCFAC
:1022D00015F0E7501426000E1522FD0EDB501424D5
:1022E000E96EFE0EDB501520EA6E16C0EFFF0A0EF7
:1022F000E15C02E2E16AE552E16EE552E7CFD9FF27
:102300001200D9CFE6FFE1CFD9FF080EE126146E07
:10231000156AFB0EDBCF08F0FC0EDBCF09F014C012
:102320000DF015C00EF064EC1EF0040E08C0DBFFCB
:10233000050E09C0DBFFFB0EDBCF16F0FC0EDBCF7A
:1023400017F0080E086E096A040EDBCF0DF0050EBB
:10235000DBCF0EF0D6EC1DF00650165C146E075065
:102360001758156E060E14C0DBFF070E15C0DBFFF5
:10237000FA0EDB50166E010E165204E0E846FE0B14
:102380001606FCE1FF0F146E156A14BE1568020EE6
:1023900014C0DBFF030E15C0DBFF040EDBCF14F00F
:1023A000050EDBCF15F0FD0EDB501424E96EFE0E9A
:1023B000DB501520EA6EEF50DE6EDD6A010EE76E2F
:1023C000040EDBCF14F0050EDBCF15F0E75014261A
:1023D000000E1522FD0EDB501424E96EFE0EDB50BC
:1023E0001520EA6EEF50000EF350DF12060EDBCF21
:1023F00014F0D9CFE9FFDACFEAFF14500F0B06E053
:10240000EC52D890ED32EF32E806FAE1020EDBCF63
:1024100014F0030EDBCF15F0D9CFE9FFDACFEAFFD6
:102420001450EE161550ED16DF50146E080EE15CD8
:1024300003E200D0E16AE552E16E1450E552E7CFC5
:10244000D9FF1200D9CFE6FFE1CFD9FFE652FE0E49
:10245000DB50070A0CE0060A07E0010A03E0040E5D
:10246000DF6E08D0DF6A06D0020EDF6E03D0060EE4
:10247000DF6E00D0DF5000D0E552E552E7CFD9FF44
:02248000120048
:0E248200DACFE4FFE2CFDAFFE9CFE4FFEACFE2
:10249000E4FFF6CFE4FFF7CFE4FFF5CFE4FFF3CF9F
:1024A000E4FFF4CFE4FFFACFE4FF00EE00F0140EF7
:1024B000E80403E3EECFE4FFFBD700EE14F0090ECF
:1024C000E80403E3EECFE4FFFBD7E652F294010108
:1024D0008A2B000E8B238C238D238E2B8F23902B06
:1024E00091238051811107E005D081C1FAFF0101DC
:1024F0008051F96EFADF7EC1E6FF7FC1E6FF2CEC6A
:102500001EF0E552E552E55200EE1CF0090EE8041B
:1025100003E3E5CFEDFFFBD700EE13F0140EE80464
:1025200003E3E5CFEDFFFBD7E5CFFAFFE5CFF4FFFF
:10253000E5CFF3FFE5CFF5FFE5CFF7FFE5CFF6FFFA
:10254000E5CFEAFFE5CFE9FFE5CFDAFF1100DACF0B
:10255000E4FFE2CFDAFFE9CFE4FFEACFE4FFF6CF12
:10256000E4FFF7CFE4FFF5CFE4FFF3CFE4FFF4CFD0
:10257000E4FFFACFE4FF00EE00F0140EE80403E3FA
:10258000EECFE4FFFBD700EE14F0090EE80403E3FE
:10259000EECFE4FFFBD7E6529E9082C1E6FF83C1F7
:1025A000E6FF10EC1EF0E552E55201018451851161
:1025B00007E005D085C1FAFF01018451F96EFADF09
:1025C000E55200EE1CF0090EE80403E3E5CFEDFF51
:1025D000FBD700EE13F0140EE80403E3E5CFEDFFA4
:1025E000FBD7E5CFFAFFE5CFF4FFE5CFF3FFE5CF6B
:1025F000F5FFE5CFF7FFE5CFF6FFE5CFEAFFE5CF43
:10260000E9FFE5CFDAFF1100DACFE4FFE2CFDAFF2E
:10261000E9CFE4FFEACFE4FFF6CFE4FFF7CFE4FF32
:10262000F5CFE4FFF3CFE4FFF4CFE4FFFACFE4FF0C
:1026300000EE00F0140EE80403E3EECFE4FFFBD756
:1026400000EE14F0090EE80403E3EECFE4FFFBD73D
:10265000E6529E9286C1BBFF01018851891107E0B5
:1026600005D089C1FAFF01018851F96EFADFE55200
:1026700000EE1CF0090EE80403E3E5CFEDFFFBD705
:1026800000EE13F0140EE80403E3E5CFEDFFFBD7F3
:10269000E5CFFAFFE5CFF4FFE5CFF3FFE5CFF5FF98
:1026A000E5CFF7FFE5CFF6FFE5CFEAFFE5CFE9FF9E
:1026B000E5CFDAFF1100D9CFE6FFE1CFD9FF9F0EBA
:1026C000E66E48EC1EF0E552FD0EDBCF7EF1FE0E0D
:1026D000DBCF7FF1FB0EDBCF80F1FC0EDBCF81F196
:1026E000FD0EDBCFE6FFFE0EDBCFE6FF2CEC1EF08F
:1026F000E552E552E552E7CFD9FF1200D9CFE6FF08
:10270000E1CFD9FF020EE126830EDF6EDE520C0E02
:10271000DD6E010EDBCFE6FFDFCFE6FF69EC1DF0DB
:10272000E552E552FD0EDBCFE6FFFE0EDBCFE6FF06
:1027300010EC1EF0E552E5529F809D80FD0EDBCF30
:1027400082F1FE0EDBCF83F1FB0EDBCF84F1FC0EBA
:10275000DBCF85F1020EE15C02E2E16AE552E16E57
:10276000E552E7CFD9FF1200D9CFE6FFE1CFD9FF7D
:102770000F0EBA6E9F829D82FE0EDB50BB6EFE0E68
:10278000DB500101866F876BFC0EDBCF88F1FD0EFD
:0C279000DBCF89F1E552E7CFD9FF120042
:04279C00D9CFE6FFAC
:1027A000E1CFD9FFFE0EDB5002E1AB9801D0AB8840
:1027B000FD0EDB5001E109D007D016CFFBFF15CF8E
:1027C000FAFF0F011451F96EF8DFE552E7CFD9FF98
:1027D0001200D9CFE6FFE1CFD9FF050EE1263C0E6E
:1027E000DF6ED950FA0FE96EFF0EDA20EA6EEE2A9C
:1027F000000EEE22EE22EE22D950FA0FE96EFF0E05
:10280000DA20EA6E040EE76ED890EF36010EEB3652
:10281000020EEB36030EEB36E706F6E1146A240EE1
:10282000156EF40E166E176A14C006F015C007F088
:1028300016C008F017C009F0FA0EDBCF0BF0FB0E44
:10284000DBCF0CF0FC0EDBCF0DF0FD0EDBCF0EF07E
:1028500093EC1DF0010E06C0DBFF020E07C0DBFF8C
:10286000030E08C0DBFF040E09C0DBFF010EDBCF47
:10287000E6FF020EDBCFE6FFDFCFE6FFABEC1CF09E
:10288000E552E552E5529F8A010E146E050EE15C99
:1028900003E200D0E16AE552E16E1450E552E7CF61
:1028A000D9FF1200D9CFE6FFE1CFD9FF8484280EEB
:1028B000E66EB5EC1EF0E552FE0EDB50AD6EACA23E
:1028C000FED78494280EE66EB5EC1EF0E552010E9C
:1028D00000D0E552E7CFD9FF1200D9CFE6FFE1CF14
:1028E000D9FFE652B7EC1DF0DF6EFD0EDBCFE9FF3E
:1028F000FE0EDBCFEAFFDFCFEFFF9E9A010E00D086
:10290000E552E552E7CFD9FF1200DACFE4FFE2CF7C
:10291000DAFFE9CFE4FFEACFE4FFF6CFE4FFF7CF39
:10292000E4FFF5CFE4FFF3CFE4FFF4CFE4FFFACF09
:10293000E4FFFBCFE4FF00EE00F0140EE80403E335
:10294000EECFE4FFFBD700EE14F0090EE80403E33A
:10295000EECFE4FFFBD7E65207D016CFFBFF15CF33
:10296000FAFF0F011451F96EF8DFE55200EE1CF08A
:10297000090EE80403E3E5CFEDFFFBD700EE13F00B
:10298000140EE80403E3E5CFEDFFFBD7E5CFFBFF33
:10299000E5CFFAFFE5CFF4FFE5CFF3FFE5CFF5FF95
:1029A000E5CFF7FFE5CFF6FFE5CFEAFFE5CFE9FF9B
:1029B000E5CFDAFF1100DACFE4FFE2CFDAFFE9CFAB
:1029C000E4FFEACFE4FFF6CFE4FFF7CFE4FFF5CF73
:1029D000E4FFF3CFE4FFF4CFE4FFFACFE4FFFBCF53
:1029E000E4FF00EE00F0140EE80403E3EECFE4FF92
:1029F000FBD700EE14F0090EE80403E3EECFE4FF8A
:102A0000FBD7E65207D013CFFBFF12CFFAFF0F011F
:102A10001151F96EF8DFE55200EE1CF0090EE804E2
:102A200003E3E5CFEDFFFBD700EE13F0140EE8044F
:102A300003E3E5CFEDFFFBD7E5CFFBFFE5CFFAFFE3
:102A4000E5CFF4FFE5CFF3FFE5CFF5FFE5CFF7FFE7
:102A5000E5CFF6FFE5CFEAFFE5CFE9FFE5CFDAFF07
:022A6000110063
:0E2A6200D9CFE6FFE1CFD9FF090EE126070E1E
:102A7000DB6AFB0EDBCFE9FFFC0EDBCFEAFF050EC6
:102A8000EE1801E1ED5001E010D1010EE76EFD0EF0
:102A9000DBCFE9FFFE0EDBCFEAFFE750E926000EB1
:102AA000EA22EF50000EF350DE6EDD6A020EE76E92
:102AB000FD0EDBCFE9FFFE0EDBCFEAFFE750E92694
:102AC000000EEA22EF50DF12DF2A010E01E3DB2ABB
:102AD000030EE76EFD0EDBCFE9FFFE0EDBCFEAFF54
:102AE000E750E926000EEA22EF50000EF350E66EA2
:102AF000D950020FE96EDACFEAFFE552E750EE6EE9
:102B0000ED6A040EE76EFD0EDBCFE9FFFE0EDBCFB4
:102B1000EAFFE750E926000EEA22EF50146E156A2C
:102B2000D950020FE96EDACFEAFF1450EE121550B9
:102B3000ED12020EDBCF14F0030EDBCF15F0010E09
:102B4000145C000E155801E2AAD0020EDBCF16F07D
:102B5000030EDBCF17F0D00E165C070E175801E3FB
:102B60009ED0FD0EDBCF08F0FE0EDBCF09F0050E88
:102B700008C0DBFF060E09C0DBFFFB0EDBCFE9FF61
:102B8000FC0EDBCFEAFFEE6AED6A050EDBCFE9FF54
:102B9000DB2A060EDBCFEAFF01E3DB2A020EEF6E33
:102BA000FB0EDBCFE9FFFC0EDBCFEAFFEE2A000EC7
:102BB000ED22020EDB50070B15E0020EDBCF14F006
:102BC000030EDBCF15F00F0B05E0D8901532143251
:102BD000E806FBE1010E1426000E1522040E14C0B7
:102BE000DBFF12D0080E146E156A020EDBCF08F060
:102BF000030EDBCF09F014C00DF015C00EF064EC2D
:102C00001EF0040E08C0DBFF050EDBCFE9FFDB2A58
:102C1000060EDBCFEAFF01E3DB2A040EDBCFEFFF7A
:102C2000FB0EDBCFE9FFFC0EDBCFEAFFEE2A000E46
:102C3000ED22020EDBCFE6FF030EDBCFE6FFDECF99
:102C4000E6FFDDCFE6FF050EDBCFE6FF060EDBCFAE
:102C5000E6FF8CEC18F0146E060EE15E1450E76E81
:102C6000080EE7CFDBFFDB500BE0080EDBCFE6FF03
:102C700022EC12F0E552E76E070EE7CFDBFF0ED035
:102C8000040EDB50146E156AFB0EDBCFE9FFFC0E61
:102C9000DBCFEAFF1450EE261550ED2205D0030ECF
:102CA000F36E070EF3CFDBFF05D0030EF36E070EB6
:102CB000F3CFDBFF070EDB50146E090EE15C03E27D
:102CC00000D0E16AE552E16E1450E552E7CFD9FF3A
:022CD0001200F0
:0E2CD200D9CFE6FFE1CFD9FF0A0EE126060EAC
:102CE000DB6AFB0EDBCFE9FFFC0EDBCFEAFF050E54
:102CF000EE1801E1ED5001E004D1010EE76EFD0E8A
:102D0000DBCFE9FFFE0EDBCFEAFFE750E926000E3E
:102D1000EA22EF50DE6EDD6AD9CFE9FFDACFEAFFB3
:102D2000EE50ED6EEF6A020EE76EFD0EDBCFE9FFAF
:102D3000FE0EDBCFEAFFE750E926000EEA22EF5055
:102D4000DF12DF2A010E01E3DB2A030EE76EFD0E20
:102D5000DBCFE9FFFE0EDBCFEAFFE750E926000EEE
:102D6000EA22EF50E66ED950020FE96EDACFEAFFA1
:102D7000E552E750EE6EED6AD950020FE96EDACFF8
:102D8000EAFFEE50ED6EEF6A040EE76EFD0EDBCF4C
:102D9000E9FFFE0EDBCFEAFFE750E926000EEA224C
:102DA000EF50146E156AD950020FE96EDACFEAFFC0
:102DB0001450EE121550ED12020EDBCF14F0030E7C
:102DC000DBCF15F0010E145C000E155801E293D014
:102DD000020EDBCF16F0030EDBCF17F07D0E165C74
:102DE000000E175801E387D0FD0EDBCF08F0FE0E72
:102DF000DBCF09F0040E08C0DBFF050E09C0DBFFC6
:102E0000FB0EDBCFE9FFFC0EDBCFEAFFEE6AED6ADB
:102E1000040EDBCFE9FFDB2A050EDBCFEAFF01E37F
:102E2000DB2A040EEF6EFB0EDBCFE9FFFC0EDBCFDF
:102E3000EAFFEE2A000EED22020E086E096ADBCFD1
:102E40000DF0030EDBCF0EF0D6EC1DF00650E66E53
:102E5000040EDBCFE9FFDB2A050EDBCFEAFF01E33F
:102E6000DB2AE552E750EF6EFB0EDBCFE9FFFC0EED
:102E7000DBCFEAFFEE2A000EED22020EDBCFE6FFEB
:102E8000030EDBCFE6FFDECFE6FFDDCFE6FF040E6D
:102E9000DBCFE6FF050EDBCFE6FFDAEC17F0146EB2
:102EA000060EE15E1450E76E070EE7CFDBFFDB5046
:102EB0000BE0070EDBCFE6FF22EC12F0E552E76EE7
:102EC000060EE7CFDBFF16D0020EDBCF14F0030EA9
:102ED000DBCF15F0010ED89014361536E806FBE16D
:102EE000FB0EDBCFE9FFFC0EDBCFEAFF1450EE2632
:102EF0001550ED2205D0030EF36E060EF3CFDBFF67
:102F000005D0030EF36E060EF3CFDBFF060EDB508B
:102F1000146E0A0EE15C03E200D0E16AE552E16E54
:0A2F20001450E552E7CFD9FF12006C
:062F2A00D9CFE6FFE1CF64
:102F3000D9FF060EE126010EDB6A4B0EF36E020E80
:102F4000F3CFDBFF010EF36E030EF3CFDBFF040EB6
:102F5000DB6AE66A010EDBCF14F0020EDBCF15F060
:102F6000166A176A14C0E6FF15C0E6FF16C0E6FF32
:102F700017C0E6FFE66A030EDBCFE6FFE66AE4EC85
:102F80000AF0186E080EE15E1850E76E050EE7CFE6
:102F9000DBFF92EC0CF0E76E050EE7CFDBFF060ED1
:102FA000E15C02E2E16AE552E16EE552E7CFD9FF6A
:102FB00012001200D9CFE6FFE1CFD9FF030EE126C0
:102FC000DF6ADF50146E030EE15C03E200D0E16AB9
:102FD000E552E16E1450E552E7CFD9FF1200D9CF88
:102FE000E6FFE1CFD9FF040EE126FB0EDB50DF6EDA
:102FF000020E086E096AF90EDBCF0DF0FA0EDBCF78
:103000000EF0D6EC1DF0010E06C0DBFF020EDB6AEF
:10301000030EDB6AF80EDB5024E0010A01E056D013
:10302000010EDB5000081CE2FD0EDBCFE9FFDB2ABE
:10303000FE0EDBCFEAFF01E3DB2AEF50E66E030E64
:10304000DBCFF3FFDB2AF350EA6A2B0FE96E0F0E9A
:10305000EA22E552E750EF6EDF2A010EDB06E0D7E9
:1030600035D0010EDB50000830E2FD0EDBCFE9FF6A
:10307000DB2AFE0EDBCFEAFF01E3DB2A410EEF6E17
:10308000FD0EDBCFE9FFDB2AFE0EDBCFEAFF01E31B
:10309000DB2A420EEF6EFD0EDBCFE9FFDB2AFE0ED0
:1030A000DBCFEAFF01E3DB2A430EEF6EFD0EDBCF41
:1030B000E9FFDB2AFE0EDBCFEAFF01E3DB2A440E49
:1030C000EF6EDF2A010EDB06CCD700D0040EE66ED1
:1030D000E66A2B0EE66E0F0EE66E17EC07F0E55271
:1030E000E552E552E552020EDB50146E040EE15C2F
:1030F00003E200D0E16AE552E16E1450E552E7CFF9
:10310000D9FF1200D9CFE6FFE1CFD9FF010E00D0E1
:10311000E552E7CFD9FF1200D9CFE6FFE1CFD9FFC3
:0C312000010E00D0E552E7CFD9FF1200ED
:04312C0000C181401D
:1031300001C0804101C0804100C1814001C0804187
:1031400000C1814000C1814001C0804101C0804177
:1031500000C1814000C1814001C0804100C1814067
:1031600001C0804101C0804100C1814001C0804157
:1031700000C1814000C1814001C0804100C1814047
:1031800001C0804101C0804100C1814000C1814037
:1031900001C0804101C0804100C1814001C0804127
:1031A00000C1814000C1814001C0804101C0804117
:1031B00000C1814000C1814001C0804100C1814007
:1031C00001C0804101C0804100C1814000C18140F7
:1031D00001C0804101C0804100C1814001C08041E7
:1031E00000C1814000C1814001C0804100C18140D7
:1031F00001C0804101C0804100C1814001C08041C7
:1032000000C1814000C1814001C0804101C08041B6
:1032100000C1814000C1814001C0804100C18140A6
:1032200001C0804101C0804100C1814000C0C10196
:10323000C30302C2C60607C705C5C404CC0C0DCD26
:103240000FCFCE0E0ACACB0BC90908C8D81819D996
:103250001BDBDA1A1EDEDF1FDD1D1CDC14D4D515C6
:10326000D71716D6D21213D311D1D010F03031F1B6
:1032700033F3F23236F6F737F53534F43CFCFD3DE6
:10328000FF3F3EFEFA3A3BFB39F9F83828E8E929D6
:10329000EB2B2AEAEE2E2FEF2DEDEC2CE42425E586
:1032A00027E7E62622E2E323E12120E0A06061A1F6
:1032B00063A3A26266A6A767A56564A46CACAD6DA6
:1032C000AF6F6EAEAA6A6BAB69A9A86878B8B97916
:1032D000BB7B7ABABE7E7FBF7DBDBC7CB47475B546
:1032E00077B7B67672B2B373B17170B05090915136
:1032F0009353529296565797559594549C5C5D9D66
:103300005F9F9E5E5A9A9B5B995958988848498955
:103310004B8B8A4A4E8E8F4F8D4D4C8C4484854505
:0C332000874746868242438341818040FB
:04332C00D9CFE6FF10
:10333000E1CFD9FFE652DF6A020EE76EF90EDBCF6E
:1033400014F0FA0EDBCF15F0E7501426000E15220C
:10335000200E145C000E15585AE20101616B626B7D
:1033600061C1E9FF62C1EAFF612B000E6223410ED9
:10337000E926010EEA22FE0EDBCFEFFFFD0EDB5049
:1033800002E0FF0E01D0000EE66E61C1E9FF62C1EE
:10339000EAFF612B000E6223410EE926010EEA22AC
:1033A000E552E750EF6ED950F90FE96EFF0EDA20C3
:1033B000EA6E000ED880EE54000EED5427E2F90EAE
:1033C000DBCFE6FFFA0EDBCFE6FFFB0EDBCFE6FF3F
:1033D000FC0EDBCFE6FF410E6125146E010E62216B
:1033E000156E14C0E6FF15C0E6FF14EC1DF0166E56
:1033F000060EE15E1650F90EDBCF08F0FA0EDBCFB9
:1034000009F00850010161270950622302D0040E1F
:10341000DF6EDF5000D0E552E552E7CFD9FF120052
:10342000D9CFE6FFE1CFD9FF61C1E6FF62C1E6FF78
:10343000410EE66E010EE66E010EE76EFD0EDBCF6D
:1034400014F0FE0EDBCF15F0E7501426000E152207
:1034500014C0E6FF15C0E6FF14EC1DF0166E060E54
:10346000E15E1650010E0101156A6125146E62516C
:103470001522FB0EDBCFE9FFFC0EDBCFEAFF14C009
:10348000EEFF15C0EDFF000E00D0E552E7CFD9FFEB
:02349000120028
:0E349200D9CFE6FFE1CFD9FF080EE126DE6AB2
:1034A000240EDE6EF40EDE6EDD6ADD52DD52DECFFE
:1034B00007F0DECF08F0DECF09F0DDCF0AF0DD52F5
:1034C000DD52075007E1240E081804E1F40E091834
:1034D00001E10A501FE0075008E1480E081805E115
:1034E000E80E091802E1010E0A1810E0075008E181
:1034F000900E081805E1D00E091802E1030E0A1813
:1035000001E000D0700ED36E9B8C08D0600ED36E9D
:103510009B8C04D0700ED36E9B9C00D0D9CFE9FF5A
:10352000DACFEAFFEECF14F0EECF15F0EECF16F0C3
:10353000EFCF17F0020ED890173216321532143230
:10354000E806F9E1040E14C0DBFF050E15C0DBFF31
:10355000060E16C0DBFF070E17C0DBFFD950040FA5
:10356000E96EDACFEAFFE80E0B6E030E0C6E0D6A01
:103570000E6AEECF06F0EECF07F0EECF08F0EFCFF9
:1035800009F093EC1DF009C0EDFF08C0EDFF07C086
:10359000EDFF06C0EFFF17681868196A040EDBCF4D
:1035A0001AF0050EDBCF1BF01C6A1A50175C146E64
:1035B0001B501858156E1C501958166E14C0A9F1DE
:1035C00015C0AAF1C26A0F01386B396B3A6B3B6BBD
:1035D0003C6B9690F19E96948494949C948E956AFC
:1035E000080EE15C02E2E16AE552E16EE552E7CFE6
:0435F000D9FF1200ED
:0C35F400D9CFE6FFE1CFD9FF020EE1269F
:10360000830EDF6EDE520C0EDD6E010EDBCFE6FFA9
:10361000A30EE66E3FEC1DF0E552E552B190B16AA3
:10362000A282A082A192FD0EDBCF33FFFE0EDBCF84
:1036300034FF010E146E020EE15C03E200D0E16A79
:10364000E552E16E1450E552E7CFD9FF1200B19078
:1036500033CFE6FF34CFE6FFF4EC1DF0E552E55240
:10366000B1801200B1901200DACFE4FFE2CFDAFFAE
:10367000E9CFE4FFEACFE4FFF6CFE4FFF7CFE4FFC2
:10368000F5CFE4FFF3CFE4FFF4CFE4FFFACFE4FF9C
:10369000FBCFE4FF00EE00F0140EE80403E3EECFEE
:1036A000E4FFFBD700EE14F0090EE80403E3EECFCD
:1036B000E4FFFBD7E652A19207D019CFFBFF18CF4A
:1036C000FAFF0F011751F96EF8DFE55200EE1CF01A
:1036D000090EE80403E3E5CFEDFFFBD700EE13F09E
:1036E000140EE80403E3E5CFEDFFFBD7E5CFFBFFC6
:1036F000E5CFFAFFE5CFF4FFE5CFF3FFE5CFF5FF28
:10370000E5CFF7FFE5CFF6FFE5CFEAFFE5CFE9FF2D
:06371000E5CFDAFF110015
:0A371600D9CFE6FFE1CFD9FF060E80
:10372000E126DF68010EDB68020EDB6A030EDB6A4E
:10373000FB0EDBCF14F0DB06FC0EDBCF15F001E255
:10374000DB061450151038E0010EDBCFE6FFFD0E4E
:10375000DBCFE9FFDB2AFE0EDBCFEAFF01E3DB2A4A
:10376000EF50E552E718E66ED950040FE96EDACF54
:10377000EAFFE552E750EE6EED6A040EDBCFF6FF8E
:10378000050EDBCFF7FF2C0EF626310EF7220800D0
:10379000F550DF18E76E010EE7CFDBFF040EDBCF3D
:1037A000F6FF050EDBCFF7FF2C0EF626320EF722C2
:1037B0000800F550DF6EBCD7DFCF14F014C015F051
:1037C000146A020E14C0DBFF030E15C0DBFF010EEE
:1037D000DB50146E156AD950020FE96EDACFEAFF9A
:1037E0001450EE121550ED12020EDBCF14F0030E42
:1037F000DBCF15F014C0F3FF15C0F4FF060EE15C3B
:1038000003E200D0E16AE552E16EE552E7CFD9FF6D
:023810001200A4
:0E381200D9CFE6FFE1CFD9FF040EE12649EC45
:103820001AF0040EE66ED1EC04F0E552000EE66EDE
:10383000E66AA9C1E6FFAAC1E6FF5BEC13F0E55218
:10384000E552E552E5529E0EE66E0A0EE66E1E0E3B
:10385000E66EB4EC13F0E552E552E55295EC17F044
:1038600015EC00F0F40EDE6E010EDE6EDE6ADD6A2F
:10387000DD52DD52D9CFE9FFDACFEAFFEE50010188
:103880008A5DEE508B59EE508C59EE508D5907E3FE
:10389000ABEC1EF001018A6B8B6B8C6B8D6BD3ECE8
:1038A0000CF0E8D7040EE15C02E2E16AE552E16E59
:0838B000E552E7CFD9FF120039
:0838B800320EF66E000EF76EF1
:1038C000000EF86E01010900F550A26F0900F550D5
:1038D000A36F03E1A26701D03DD00900F5509D6FB1
:1038E0000900F5509E6F0900F5509F6F090009000F
:1038F000F550E96E0900F550EA6E0900090009006B
:10390000F550A06F0900F550A16F09000900F6CF2E
:10391000A4F1F7CFA5F1F8CFA6F19DC1F6FF9EC1A6
:10392000F7FF9FC1F8FF0101A05302E1A15307E097
:103930000900F550EE6EA007F8E2A107F9D7A4C17F
:10394000F6FFA5C1F7FFA6C1F8FF0101A207000E0F
:06395000A35BBFD71200CB
:0A395600D9CFE6FFDACFE6FFE1CF9C
:10396000D9FFE2CFDAFFAC6AAB6AFD0EDBB0AC8800
:10397000DBA202D0AC8CAB8CDBB4AC8EDBA602D06D
:10398000AB8801D0AB8ADBB8AC84DBBAAB86DBACEE
:1039900002D09D8A01D09D9ADBAE02D09D8801D0D5
:1039A0009D98FB0EDB50AF6EFC0EDBCF15F015C003
:1039B00014F0156A1450B06EAC8AAB8EE552E5CFA8
:0839C000DAFFE7CFD9FF120086
:0839C8000F01366B010E00D067
:1039D0001200D9CFE6FFE1CFD9FF0F01010E366FFC
:1039E000FE0EDBCF35FF010E00D0E552E7CFD9FF49
:1039F0001200D9CFE6FFE1CFD9FFE652DF6A0F010F
:103A000036510BE0FD0EDBCFE9FFFE0EDBCFEAFF08
:103A100035CFEFFF366B010EDF6EDF5000D0E55281
:083A2000E552E7CFD9FF1200C7
:083A2800D9CFE6FFDACFE6FF7B
:103A3000FA0EE3CFD9FFFB0EE3CFDAFFFC0EE3CFA4
:103A4000E9FFFD0EE3CFEAFFE9CFF3FFEACFF4FF92
:103A5000F80EE35003E1F90EE35008E0F80EE30638
:103A600002E2F90EE306DECFEEFFF2D7FF0EE3CF60
:0E3A7000DAFFE552FF0EE3CFD9FFE552120058
:023A7E00D9CF9E
:103A8000E6FFDACFE6FFE1CFD9FFE2CFDAFFFC0EA7
:103A9000DB50F30BB46EFD0EDB507F0BE824B16EF0
:103AA000B36AB26AA192A492FD0EDBAE02D0A082EC
:103AB00001D0A092FC0EDBA402D0A38201D0A3927D
:103AC000B4BEB486B180E552E5CFDAFFE7CFD9FFC7
:023AD0001200E2
:0E3AD200D9CFE6FFDACFE6FFE1CFD9FFE2CF92
:103AE000DAFFFC0EDB50F30BCC6EFD0EDB507F0BD0
:103AF000E824CD6ECF6ACE6A9E90FD0EDBAE02D07A
:103B00009D8001D09D90A490FC0EDBA402D0A380E8
:103B100001D0A390CCBECC86CD80E552E5CFDAFFB4
:063B2000E7CFD9FF1200FF
:0A3B2600056A046A036A026A200EB1
:103B3000E76ED89006360736083609360236033661
:103B4000043605360B50025C0C5003580D500458D7
:103B50000E50055809E30B50025E0C50035A0D50ED
:0E3B6000045A0E50055A062AE72EE4D712002A
:023B6E00D9CFAD
:103B7000E6FFDACFE6FFE1CFD9FFE2CFDAFFE65288
:103B8000F20E0F013717ABAC03D03791ABB03781D2
:103B9000ABB43785ABB23787AE50DF6EDF50E5523E
:0C3BA000E552E5CFDAFFE7CFD9FF1200B5
:043BAC0008C012F04B
:103BB00008500D02F4CF07F0F3CF06F009500E02C3
:103BC000F4CF09F0F3CF08F00D02F3500726F450BC
:103BD0000822E86A092212500E02F3500726F45018
:083BE0000822E86A0922000C2A
:083BE800D9CFE6FFDACFE6FFBA
:103BF000E1CFD9FFE2CFDAFFE652E652FC0EDBCF8F
:103C0000DEFFDBCFDDFF010EDB50B36EDF50B26EA7
:103C1000E552E552E552E5CFDAFFE7CFD9FF1200D2
:103C2000D9CFE6FFDACFE6FFE1CFD9FFE2CFDAFF67
:103C3000E652E652FC0EDBCFDEFFDBCFDDFF010EEE
:103C4000DB50CF6EDF50CE6EE552E552E552E5CF48
:083C5000DAFFE7CFD9FF1200F3
:083C5800D9CFE6FFDACFE6FF49
:103C6000E1CFD9FFE2CFDAFFE652E652FC0EDBCF1E
:103C7000DEFFDBCFDDFF010EDB50D76EDF50D66EEF
:103C8000E552E552E552E5CFDAFFE7CFD9FF120062
:103C9000D9CFE6FFDACFE6FFE1CFD9FFE2CFDAFFF7
:103CA000FD0EDB507F0BD56ED76AD66AF294FD0EFF
:103CB000DBAE02D0F28A01D0F29AD58EE552E5CF82
:083CC000DAFFE7CFD9FF120083
:083CC800056A046A100EE76EA4
:103CD000D89008360936043605360D50045C0E506F
:103CE000055805E30D50045E0E50055A082AE72ECC
:043CF000F0D71200F7
:0C3CF400FF0EE3501D6E480E01D04C0E78
:103D0000E76EE72EFED7E76AE72EFED71D2EF7D720
:043D1000000012009D
:0C3D1400380EF36E00EE00F00F0E01D828
:103D20001200EA6002D0EE6AFCD7F350E96012009C
:043D3000EE6AFCD764
:0C3D340010EE60F020EE60F0F86A019CD8
:103D40005CEC1CF003EC00F009EC1CF0FBD712005B
:103D50000101AC6B12000101AC0503E1AC6B849076
:0A3D600003D0010EAC6F8480120046
:063D6A00FF0EE350E84EDD
:103D70001200000000D000D000D0E82EFAD71200C8
:103D80000000000000000000000000000000000033
:0B3D9000000000000000000000000028
:053D9B00000000000023
:073DA000000000000000001C
:093DA70000000000000000000013
:0B3DB000000000000000000000000008
:023DBB00000006
:033DBD00021120D0
:103DC000340004D22C000372030010840100069416
:103DD000000017B4050001B60F00052812000F9A65
:103DE000130002622A000000000000000000000032
:0E3DF0000000000000000000000000000000C5
:013DFE0000C4
:013DFF003F84
:0A3E0000065B4F666D7D077F6F00C3
:023E0A000000B6
:020000040030CA
:0100010008F6
:0100020001FC
:0100030024D8
:01000500BD3D
:0100060000F9
:010008000FE8
:01000900C036
:01000A000FE6
:01000B00E014
:01000C000FE4
:01000D0040B2
:00000001FF
